:05020C001200F980FE64
:0D01E10048656C6C6F20526F626F636F6E2B
:1000F90078097C007D007BFF7A0179E17E007F0D24
:100109001200D31201C27F0A1201641201897F1001
:10011900120164120189E4F50874092508F8E6FF5B
:100129001201640508E508C3940D40ED1201890226
:0201390001D3F0
:0F01A800D2917F017E001201B7D2907F017E00BD
:0B01B700EF1FAC0670011E4C70F6221A
:1001C2001201A8C2911201B3C2907F017E00020106
:0101D200B775
:0E01D300C2911201AAD2917F017E000201B7F3
:0A01FA00C290C2911201AAC2902225
:08020400C2901201A8C2902271
:10018900E4FDD2907F01FE1201B730910D0DEDD340
:0E019900946440F61201D37F0122C2907F00D1
:0101A7002235
:02016400AD07E5
:10016600E4FBC290ED5480D394004004D291800207
:10017600C291ED25E0FD1201AAC2901201B30BBB9C
:0201860008E28D
:010188002254
:02013B00AD070E
:10013D00E4FBFAC2901201B3D290EA25E0FA3091B5
:10014D00010A1201B30BBB08EAED7005120204801F
:06015D00031201FAAF02DB
:010163002279
:030000000201EE0C
:0C01EE00787FE4F6D8FD75811502020C44
:10000300E709F608DFFA8046E709F208DFFA803EDF
:1000130088828C83E709F0A3DFFA8032E309F608CC
:10002300DFFA8078E309F208DFFA807088828C8334
:10003300E309F0A3DFFA806489828A83E0A3F608E8
:10004300DFFA805889828A83E0A3F208DFFA804CC2
:1000530080D280FA80C680D4806980F28033801099
:1000630080A680EA809A80A880DA80E280CA803302
:1000730089828A83ECFAE493A3C8C582C8CCC5837A
:10008300CCF0A3C8C582C8CCC583CCDFE9DEE7804A
:100093000D89828A83E493A3F608DFF9ECFAA9F0C9
:1000A300EDFB2289828A83ECFAE0A3C8C582C8CC1F
:1000B300C583CCF0A3C8C582C8CCC583CCDFEADE38
:1000C300E880DB89828A83E493A3F208DFF980CC9A
:1000D30088F0EF60010E4E60C388F0ED2402B40493
:1000E3000050B9F582EB2402B4040050AF2323453A
:0600F3008223900053730C
:00000001FF
