:050A4E0012090F80FEFB
:0D0A230048656C6C6F20526F626F636F6EE0
:10090F0078087C007D007BFF7A0A79237E007F0DBB
:10091F001208D075150D751610751700751800751E
:10092F001908AF151515EF601BAF160516AB170598
:10093F0019E519AA187002051814F91208F6FD1214
:04094F00095480DEE9
:010953002281
:100954008F1A8D1B120A047F0A1209A61209CBAF43
:100964001A1209A61209CBAF1B1209A61209CB123F
:090974000A157F027E000209F958
:0F09EA00D2917F017E001209F9D2907F017E0029
:0B09F900EF1FAC0670011E4C70F622D0
:100A04001209EAC2911209F5C2907F017E0002091F
:010A1400F9E8
:0E0A1500C2911209ECD2917F017E000209F914
:0A0A3C00C290C2911209ECC2902290
:080A4600C2901209EAC29022DD
:1009CB00E4FDD2907F01FE1209F930910D0DEDD3AC
:0E09DB00946440F6120A157F0122C2907F003C
:0109E90022EB
:0209A600AD079B
:1009A800E4FBC290ED5480D394004004D2918002BD
:1009B800C291ED25E0FD1209ECC2901209F50BBBBE
:0209C80008E243
:0109CA00220A
:02097D00AD07C4
:10097F00E4FBFAC2901209F5D290EA25E0FA309121
:10098F00010A1209F50BBB08EAED7005120A468041
:06099F0003120A3CAF0246
:0109A500222F
:03000000020A30C1
:0C0A3000787FE4F6D8FD75811B020A4EA9
:10080000E709F608DFFA8046E709F208DFFA803EDA
:1008100088828C83E709F0A3DFFA8032E309F608C7
:10082000DFFA8078E309F208DFFA807088828C832F
:10083000E309F0A3DFFA806489828A83E0A3F608E3
:10084000DFFA805889828A83E0A3F208DFFA804CBD
:1008500080D280FA80C680D4806980F28033801094
:1008600080A680EA809A80A880DA80E280CA8033FD
:1008700089828A83ECFAE493A3C8C582C8CCC58375
:10088000CCF0A3C8C582C8CCC583CCDFE9DEE78045
:100890000D89828A83E493A3F608DFF9ECFAA9F0C4
:1008A000EDFB2289828A83ECFAE0A3C8C582C8CC1A
:1008B000C583CCF0A3C8C582C8CCC583CCDFEADE33
:1008C000E880DB89828A83E493A3F208DFF980CC95
:1008D00088F0EF60010E4E60C388F0ED2402B4048E
:1008E0000050B9F582EB2402B4040050AF23234535
:0608F00082239008507302
:1008F600BB010689828A83E0225002E722BBFE0200
:09090600E32289828A83E4932232
:00000001FF
